:10000000A9C00000B7C00000B5C00000B3C0000028
:10001000B1C00000AFC00000ADC00000ABC0000028
:10002000A9C00000A7C00000F0C000002DC1000062
:10003000A1C000009FC000009DC000009BC0000048
:1000400099C0000097C0000095C0000093C0000058
:1000500091C000008FC000008DC000008BC0000068
:1000600089C0000087C0000085C0000083C0000078
:1000700081C000007FC000007DC000007BC0000088
:1000800079C0000077C0000075C0000073C0000098
:1000900071C000006FC00000000100003C011200B0
:1000A00002000005012200220000270115002100A6
:1000B000001701090003000001010401030904EB1A
:1000C000001402030904C90020200359006F0075C1
:1000D00000720020005500530042002000440065DB
:1000E0000076006900630065000000140359006F8A
:1000F000007500720020004E0061006D0065000078
:10010000000403090409022200010100C0320904AD
:100110000000010300000009211101000122150067
:10012000070583032000010631FF0974A1537508F8
:10013000150026FF00952009758102C012010002FA
:1001400000000020C0167904000101020001000037
:1001500001C1260011241FBECFEFD0E2DEBFCDBF0C
:1001600011E0A0E0B1E001C01D92A330B107E1F7BA
:1001700002D0C9C145CF80E8809361001092610030
:10018000249A259A269A2C982D982E9827D02C9A26
:100190002FEF8DE399E4215080409040E1F700C0BB
:1001A00000002C982D9A2FEF8DE399E42150804088
:1001B0009040E1F700C000002D982E9A2FEF8DE3BC
:1001C00099E4215080409040E1F700C000002E9853
:1001D000DECF8091E80080FFFCCF089581E8809316
:1001E000D70080EA8093D80086E189BD09B400FE7B
:1001F000FDCF80E98093D8001092E00010920201B8
:100200008CE08093E200789408951F920F920FB6CD
:100210000F9211248F939F938091E1001092E1003F
:1002200083FF0FC01092E90091E09093EB001092D1
:10023000EC0092E29093ED0098E09093F000109221
:10024000020182FF1AC0809102018823B1F08091DF
:100250000101882391F081508093010181110DC02B
:1002600083E08093E9008091E80085FF03C010924D
:10027000F100F9CF8AE38093E8009F918F910F906E
:100280000FBE0F901F9018951F920F920FB60F92EE
:1002900011240BB60F92EF92FF920F931F932F939F
:1002A0003F934F935F936F937F938F939F93AF93FE
:1002B000BF93EF93FF93CF93DF931F92CDB7DEB73A
:1002C0001092E9008091E80083FF00C19091F10055
:1002D0008091F1000091F1002091F10010E0122BCB
:1002E0003091F1002091F100E32EF12CF22A2091BF
:1002F000F1004091F10030E0342B42EF4093E800F0
:10030000863009F044C067E088E990E0FC0145913F
:1003100054914017510739F4FC013296459154919C
:100320004E155F0521F00796615081F7CFC0FC01A3
:10033000349645915491FC01369684912F3F3105B6
:1003400019F010F02FEF30E0281708F4822F3EEF5D
:100350009091E800292F2570D9F392FDBAC0982F0B
:10036000813208F090E2FA01292F222331F06491C2
:100370006093F10021503196F8CF490F511D891B30
:100380003093E8008111E4CF903211F3A2C08530A0
:1003900041F48EEF8093E8001CDF00680093E300D7
:1003A00098C0893041F591114BC0009302018EEF46
:1003B0008093E80041E08EE491E04093E9009C01E5
:1003C0002F5F3F4FFC0154915093EB00552361F098
:1003D000F90124912093EC009C012D5F3F4FFC011B
:1003E000329684918093ED004F5F453011F0C90142
:1003F000E4CF8EE145C0883049F4903809F066C0FA
:10040000E8DE809102018093F10016C0811118C0CE
:100410009983DFDE9981923851F4E092E90080916E
:10042000EB0085FB882780F91092E90001C080E08D
:100430008093F1001092F1008EEF8093E80049C0A4
:10044000482F4D7F413009F041C09230F1F4012B2B
:10045000E9F52E2D2F779FEF920F9430B8F59EEF90
:100460009093E8002093E900833081F189E1809343
:10047000EB0081E090E0022E01C0880F0A94EAF7B9
:100480008093EA001092EA0024C08130F9F4913A96
:10049000E9F4EF28D9F43EEF8091E800982F9570A9
:1004A000D9F382FD16C0822F213208F080E2982F06
:1004B000992321F01092F1009150FACF281B30932C
:1004C000E8002111E9CF803239F303C081E2809343
:1004D000EB000F90DF91CF91FF91EF91BF91AF9122
:1004E0009F918F917F916F915F914F913F912F914C
:1004F0001F910F91FF90EF900F900BBE0F900FBECA
:0A0500000F901F901895F894FFCF9C
:00000001FF
